{
  "_format": "hh-sol-artifact-1",
  "contractName": "SupplyChain",
  "sourceName": "contracts/SupplyChain.sol",
  "abi": [
    {
      "anonymous": false,
      "inputs": [
        {
          "indexed": false,
          "internalType": "string",
          "name": "uid",
          "type": "string"
        },
        {
          "indexed": false,
          "internalType": "string",
          "name": "productUid",
          "type": "string"
        },
        {
          "indexed": false,
          "internalType": "uint256",
          "name": "timestamp",
          "type": "uint256"
        }
      ],
      "name": "TransactionAdded",
      "type": "event"
    },
    {
      "inputs": [
        {
          "components": [
            {
              "internalType": "string",
              "name": "uid",
              "type": "string"
            },
            {
              "internalType": "string",
              "name": "productUid",
              "type": "string"
            },
            {
              "internalType": "string",
              "name": "country",
              "type": "string"
            },
            {
              "internalType": "string",
              "name": "province",
              "type": "string"
            },
            {
              "internalType": "string",
              "name": "actorName",
              "type": "string"
            },
            {
              "internalType": "uint256",
              "name": "timestamp",
              "type": "uint256"
            },
            {
              "internalType": "uint256",
              "name": "quantity",
              "type": "uint256"
            },
            {
              "internalType": "string",
              "name": "unit",
              "type": "string"
            },
            {
              "internalType": "string",
              "name": "eventType",
              "type": "string"
            },
            {
              "internalType": "string",
              "name": "actor",
              "type": "string"
            },
            {
              "internalType": "uint8",
              "name": "humidity",
              "type": "uint8"
            },
            {
              "internalType": "int8",
              "name": "temperature",
              "type": "int8"
            },
            {
              "internalType": "bool",
              "name": "criticalEvent",
              "type": "bool"
            },
            {
              "internalType": "string",
              "name": "transportDocRef",
              "type": "string"
            }
          ],
          "internalType": "struct SupplyChain.TransactionInput",
          "name": "input",
          "type": "tuple"
        }
      ],
      "name": "addTransaction",
      "outputs": [],
      "stateMutability": "nonpayable",
      "type": "function"
    },
    {
      "inputs": [
        {
          "internalType": "uint256",
          "name": "index",
          "type": "uint256"
        }
      ],
      "name": "getTransaction",
      "outputs": [
        {
          "components": [
            {
              "internalType": "string",
              "name": "uid",
              "type": "string"
            },
            {
              "internalType": "string",
              "name": "productUid",
              "type": "string"
            },
            {
              "internalType": "string",
              "name": "country",
              "type": "string"
            },
            {
              "internalType": "string",
              "name": "province",
              "type": "string"
            },
            {
              "internalType": "string",
              "name": "actorName",
              "type": "string"
            },
            {
              "internalType": "uint256",
              "name": "timestamp",
              "type": "uint256"
            },
            {
              "internalType": "uint256",
              "name": "quantity",
              "type": "uint256"
            },
            {
              "internalType": "string",
              "name": "unit",
              "type": "string"
            },
            {
              "internalType": "string",
              "name": "eventType",
              "type": "string"
            },
            {
              "internalType": "string",
              "name": "actor",
              "type": "string"
            },
            {
              "components": [
                {
                  "internalType": "uint8",
                  "name": "humidity",
                  "type": "uint8"
                },
                {
                  "internalType": "int8",
                  "name": "temperature",
                  "type": "int8"
                },
                {
                  "internalType": "bool",
                  "name": "criticalEvent",
                  "type": "bool"
                }
              ],
              "internalType": "struct SupplyChain.Environment",
              "name": "env",
              "type": "tuple"
            },
            {
              "internalType": "string",
              "name": "transportDocRef",
              "type": "string"
            }
          ],
          "internalType": "struct SupplyChain.Transaction",
          "name": "",
          "type": "tuple"
        }
      ],
      "stateMutability": "view",
      "type": "function"
    },
    {
      "inputs": [],
      "name": "getTransactionCount",
      "outputs": [
        {
          "internalType": "uint256",
          "name": "",
          "type": "uint256"
        }
      ],
      "stateMutability": "view",
      "type": "function"
    },
    {
      "inputs": [
        {
          "internalType": "uint256",
          "name": "",
          "type": "uint256"
        }
      ],
      "name": "transactions",
      "outputs": [
        {
          "internalType": "string",
          "name": "uid",
          "type": "string"
        },
        {
          "internalType": "string",
          "name": "productUid",
          "type": "string"
        },
        {
          "internalType": "string",
          "name": "country",
          "type": "string"
        },
        {
          "internalType": "string",
          "name": "province",
          "type": "string"
        },
        {
          "internalType": "string",
          "name": "actorName",
          "type": "string"
        },
        {
          "internalType": "uint256",
          "name": "timestamp",
          "type": "uint256"
        },
        {
          "internalType": "uint256",
          "name": "quantity",
          "type": "uint256"
        },
        {
          "internalType": "string",
          "name": "unit",
          "type": "string"
        },
        {
          "internalType": "string",
          "name": "eventType",
          "type": "string"
        },
        {
          "internalType": "string",
          "name": "actor",
          "type": "string"
        },
        {
          "components": [
            {
              "internalType": "uint8",
              "name": "humidity",
              "type": "uint8"
            },
            {
              "internalType": "int8",
              "name": "temperature",
              "type": "int8"
            },
            {
              "internalType": "bool",
              "name": "criticalEvent",
              "type": "bool"
            }
          ],
          "internalType": "struct SupplyChain.Environment",
          "name": "env",
          "type": "tuple"
        },
        {
          "internalType": "string",
          "name": "transportDocRef",
          "type": "string"
        }
      ],
      "stateMutability": "view",
      "type": "function"
    }
  ],
  "bytecode": "0x608060405234801561001057600080fd5b50611cd0806100206000396000f3fe608060405234801561001057600080fd5b506004361061004c5760003560e01c80631d6df091146100515780632e7700f01461006d57806333ea3dc81461008b5780639ace38c2146100bb575b600080fd5b61006b6004803603810190610066919061145c565b6100f6565b005b610075610379565b60405161008291906114b4565b60405180910390f35b6100a560048036038101906100a091906114cf565b610385565b6040516100b29190611735565b60405180910390f35b6100d560048036038101906100d091906114cf565b6109a8565b6040516100ed9c9b9a999897969594939291906117e3565b60405180910390f35b6000604051806060016040528083610140015160ff16815260200183610160015160000b815260200183610180015115158152509050600060405180610180016040528084600001518152602001846020015181526020018460400151815260200184606001518152602001846080015181526020018460a0015181526020018460c0015181526020018460e00151815260200184610100015181526020018461012001518152602001838152602001846101a00151815250905060008190806001815401808255809150506001900390600052602060002090600c020160009091909190915060008201518160000190816101f29190611ae8565b5060208201518160010190816102089190611ae8565b50604082015181600201908161021e9190611ae8565b5060608201518160030190816102349190611ae8565b50608082015181600401908161024a9190611ae8565b5060a0820151816005015560c0820151816006015560e08201518160070190816102749190611ae8565b5061010082015181600801908161028b9190611ae8565b506101208201518160090190816102a29190611ae8565b5061014082015181600a0160008201518160000160006101000a81548160ff021916908360ff16021790555060208201518160000160016101000a81548160ff021916908360000b60ff16021790555060408201518160000160026101000a81548160ff021916908315150217905550505061016082015181600b01908161032a9190611ae8565b5050507ff277c022f3516570f60b2d6578240a85e58ac0f97bb678f4fa339b950f3404e4836000015184602001518560a0015160405161036c93929190611bba565b60405180910390a1505050565b60008080549050905090565b61038d610f3f565b60008054905082106103d4576040517f08c379a00000000000000000000000000000000000000000000000000000000081526004016103cb90611c4b565b60405180910390fd5b600082815481106103e8576103e7611c6b565b5b90600052602060002090600c0201604051806101800160405290816000820180546104129061190b565b80601f016020809104026020016040519081016040528092919081815260200182805461043e9061190b565b801561048b5780601f106104605761010080835404028352916020019161048b565b820191906000526020600020905b81548152906001019060200180831161046e57829003601f168201915b505050505081526020016001820180546104a49061190b565b80601f01602080910402602001604051908101604052809291908181526020018280546104d09061190b565b801561051d5780601f106104f25761010080835404028352916020019161051d565b820191906000526020600020905b81548152906001019060200180831161050057829003601f168201915b505050505081526020016002820180546105369061190b565b80601f01602080910402602001604051908101604052809291908181526020018280546105629061190b565b80156105af5780601f10610584576101008083540402835291602001916105af565b820191906000526020600020905b81548152906001019060200180831161059257829003601f168201915b505050505081526020016003820180546105c89061190b565b80601f01602080910402602001604051908101604052809291908181526020018280546105f49061190b565b80156106415780601f1061061657610100808354040283529160200191610641565b820191906000526020600020905b81548152906001019060200180831161062457829003601f168201915b5050505050815260200160048201805461065a9061190b565b80601f01602080910402602001604051908101604052809291908181526020018280546106869061190b565b80156106d35780601f106106a8576101008083540402835291602001916106d3565b820191906000526020600020905b8154815290600101906020018083116106b657829003601f168201915b5050505050815260200160058201548152602001600682015481526020016007820180546107009061190b565b80601f016020809104026020016040519081016040528092919081815260200182805461072c9061190b565b80156107795780601f1061074e57610100808354040283529160200191610779565b820191906000526020600020905b81548152906001019060200180831161075c57829003601f168201915b505050505081526020016008820180546107929061190b565b80601f01602080910402602001604051908101604052809291908181526020018280546107be9061190b565b801561080b5780601f106107e05761010080835404028352916020019161080b565b820191906000526020600020905b8154815290600101906020018083116107ee57829003601f168201915b505050505081526020016009820180546108249061190b565b80601f01602080910402602001604051908101604052809291908181526020018280546108509061190b565b801561089d5780601f106108725761010080835404028352916020019161089d565b820191906000526020600020905b81548152906001019060200180831161088057829003601f168201915b50505050508152602001600a82016040518060600160405290816000820160009054906101000a900460ff1660ff1660ff1681526020016000820160019054906101000a900460000b60000b60000b81526020016000820160029054906101000a900460ff1615151515815250508152602001600b8201805461091f9061190b565b80601f016020809104026020016040519081016040528092919081815260200182805461094b9061190b565b80156109985780601f1061096d57610100808354040283529160200191610998565b820191906000526020600020905b81548152906001019060200180831161097b57829003601f168201915b5050505050815250509050919050565b600081815481106109b857600080fd5b90600052602060002090600c02016000915090508060000180546109db9061190b565b80601f0160208091040260200160405190810160405280929190818152602001828054610a079061190b565b8015610a545780601f10610a2957610100808354040283529160200191610a54565b820191906000526020600020905b815481529060010190602001808311610a3757829003601f168201915b505050505090806001018054610a699061190b565b80601f0160208091040260200160405190810160405280929190818152602001828054610a959061190b565b8015610ae25780601f10610ab757610100808354040283529160200191610ae2565b820191906000526020600020905b815481529060010190602001808311610ac557829003601f168201915b505050505090806002018054610af79061190b565b80601f0160208091040260200160405190810160405280929190818152602001828054610b239061190b565b8015610b705780601f10610b4557610100808354040283529160200191610b70565b820191906000526020600020905b815481529060010190602001808311610b5357829003601f168201915b505050505090806003018054610b859061190b565b80601f0160208091040260200160405190810160405280929190818152602001828054610bb19061190b565b8015610bfe5780601f10610bd357610100808354040283529160200191610bfe565b820191906000526020600020905b815481529060010190602001808311610be157829003601f168201915b505050505090806004018054610c139061190b565b80601f0160208091040260200160405190810160405280929190818152602001828054610c3f9061190b565b8015610c8c5780601f10610c6157610100808354040283529160200191610c8c565b820191906000526020600020905b815481529060010190602001808311610c6f57829003601f168201915b505050505090806005015490806006015490806007018054610cad9061190b565b80601f0160208091040260200160405190810160405280929190818152602001828054610cd99061190b565b8015610d265780601f10610cfb57610100808354040283529160200191610d26565b820191906000526020600020905b815481529060010190602001808311610d0957829003601f168201915b505050505090806008018054610d3b9061190b565b80601f0160208091040260200160405190810160405280929190818152602001828054610d679061190b565b8015610db45780601f10610d8957610100808354040283529160200191610db4565b820191906000526020600020905b815481529060010190602001808311610d9757829003601f168201915b505050505090806009018054610dc99061190b565b80601f0160208091040260200160405190810160405280929190818152602001828054610df59061190b565b8015610e425780601f10610e1757610100808354040283529160200191610e42565b820191906000526020600020905b815481529060010190602001808311610e2557829003601f168201915b50505050509080600a016040518060600160405290816000820160009054906101000a900460ff1660ff1660ff1681526020016000820160019054906101000a900460000b60000b60000b81526020016000820160029054906101000a900460ff1615151515815250509080600b018054610ebc9061190b565b80601f0160208091040260200160405190810160405280929190818152602001828054610ee89061190b565b8015610f355780601f10610f0a57610100808354040283529160200191610f35565b820191906000526020600020905b815481529060010190602001808311610f1857829003601f168201915b505050505090508c565b60405180610180016040528060608152602001606081526020016060815260200160608152602001606081526020016000815260200160008152602001606081526020016060815260200160608152602001610f99610fa6565b8152602001606081525090565b6040518060600160405280600060ff1681526020016000800b81526020016000151581525090565b6000604051905090565b600080fd5b600080fd5b600080fd5b6000601f19601f8301169050919050565b7f4e487b7100000000000000000000000000000000000000000000000000000000600052604160045260246000fd5b61103082610fe7565b810181811067ffffffffffffffff8211171561104f5761104e610ff8565b5b80604052505050565b6000611062610fce565b905061106e8282611027565b919050565b600080fd5b600080fd5b600080fd5b600067ffffffffffffffff82111561109d5761109c610ff8565b5b6110a682610fe7565b9050602081019050919050565b82818337600083830152505050565b60006110d56110d084611082565b611058565b9050828152602081018484840111156110f1576110f061107d565b5b6110fc8482856110b3565b509392505050565b600082601f83011261111957611118611078565b5b81356111298482602086016110c2565b91505092915050565b6000819050919050565b61114581611132565b811461115057600080fd5b50565b6000813590506111628161113c565b92915050565b600060ff82169050919050565b61117e81611168565b811461118957600080fd5b50565b60008135905061119b81611175565b92915050565b60008160000b9050919050565b6111b7816111a1565b81146111c257600080fd5b50565b6000813590506111d4816111ae565b92915050565b60008115159050919050565b6111ef816111da565b81146111fa57600080fd5b50565b60008135905061120c816111e6565b92915050565b60006101c0828403121561122957611228610fe2565b5b6112346101c0611058565b9050600082013567ffffffffffffffff81111561125457611253611073565b5b61126084828501611104565b600083015250602082013567ffffffffffffffff81111561128457611283611073565b5b61129084828501611104565b602083015250604082013567ffffffffffffffff8111156112b4576112b3611073565b5b6112c084828501611104565b604083015250606082013567ffffffffffffffff8111156112e4576112e3611073565b5b6112f084828501611104565b606083015250608082013567ffffffffffffffff81111561131457611313611073565b5b61132084828501611104565b60808301525060a061133484828501611153565b60a08301525060c061134884828501611153565b60c08301525060e082013567ffffffffffffffff81111561136c5761136b611073565b5b61137884828501611104565b60e08301525061010082013567ffffffffffffffff81111561139d5761139c611073565b5b6113a984828501611104565b6101008301525061012082013567ffffffffffffffff8111156113cf576113ce611073565b5b6113db84828501611104565b610120830152506101406113f18482850161118c565b61014083015250610160611407848285016111c5565b6101608301525061018061141d848285016111fd565b610180830152506101a082013567ffffffffffffffff81111561144357611442611073565b5b61144f84828501611104565b6101a08301525092915050565b60006020828403121561147257611471610fd8565b5b600082013567ffffffffffffffff8111156114905761148f610fdd565b5b61149c84828501611212565b91505092915050565b6114ae81611132565b82525050565b60006020820190506114c960008301846114a5565b92915050565b6000602082840312156114e5576114e4610fd8565b5b60006114f384828501611153565b91505092915050565b600081519050919050565b600082825260208201905092915050565b60005b8381101561153657808201518184015260208101905061151b565b60008484015250505050565b600061154d826114fc565b6115578185611507565b9350611567818560208601611518565b61157081610fe7565b840191505092915050565b61158481611132565b82525050565b61159381611168565b82525050565b6115a2816111a1565b82525050565b6115b1816111da565b82525050565b6060820160008201516115cd600085018261158a565b5060208201516115e06020850182611599565b5060408201516115f360408501826115a8565b50505050565b60006101c08301600083015184820360008601526116178282611542565b915050602083015184820360208601526116318282611542565b9150506040830151848203604086015261164b8282611542565b915050606083015184820360608601526116658282611542565b9150506080830151848203608086015261167f8282611542565b91505060a083015161169460a086018261157b565b5060c08301516116a760c086018261157b565b5060e083015184820360e08601526116bf8282611542565b9150506101008301518482036101008601526116db8282611542565b9150506101208301518482036101208601526116f78282611542565b91505061014083015161170e6101408601826115b7565b506101608301518482036101a08601526117288282611542565b9150508091505092915050565b6000602082019050818103600083015261174f81846115f9565b905092915050565b600082825260208201905092915050565b6000611773826114fc565b61177d8185611757565b935061178d818560208601611518565b61179681610fe7565b840191505092915050565b6060820160008201516117b7600085018261158a565b5060208201516117ca6020850182611599565b5060408201516117dd60408501826115a8565b50505050565b60006101c08201905081810360008301526117fe818f611768565b90508181036020830152611812818e611768565b90508181036040830152611826818d611768565b9050818103606083015261183a818c611768565b9050818103608083015261184e818b611768565b905061185d60a083018a6114a5565b61186a60c08301896114a5565b81810360e083015261187c8188611768565b90508181036101008301526118918187611768565b90508181036101208301526118a68186611768565b90506118b66101408301856117a1565b8181036101a08301526118c98184611768565b90509d9c50505050505050505050505050565b7f4e487b7100000000000000000000000000000000000000000000000000000000600052602260045260246000fd5b6000600282049050600182168061192357607f821691505b602082108103611936576119356118dc565b5b50919050565b60008190508160005260206000209050919050565b60006020601f8301049050919050565b600082821b905092915050565b60006008830261199e7fffffffffffffffffffffffffffffffffffffffffffffffffffffffffffffffff82611961565b6119a88683611961565b95508019841693508086168417925050509392505050565b6000819050919050565b60006119e56119e06119db84611132565b6119c0565b611132565b9050919050565b6000819050919050565b6119ff836119ca565b611a13611a0b826119ec565b84845461196e565b825550505050565b600090565b611a28611a1b565b611a338184846119f6565b505050565b5b81811015611a5757611a4c600082611a20565b600181019050611a39565b5050565b601f821115611a9c57611a6d8161193c565b611a7684611951565b81016020851015611a85578190505b611a99611a9185611951565b830182611a38565b50505b505050565b600082821c905092915050565b6000611abf60001984600802611aa1565b1980831691505092915050565b6000611ad88383611aae565b9150826002028217905092915050565b611af1826114fc565b67ffffffffffffffff811115611b0a57611b09610ff8565b5b611b14825461190b565b611b1f828285611a5b565b600060209050601f831160018114611b525760008415611b40578287015190505b611b4a8582611acc565b865550611bb2565b601f198416611b608661193c565b60005b82811015611b8857848901518255600182019150602085019450602081019050611b63565b86831015611ba55784890151611ba1601f891682611aae565b8355505b6001600288020188555050505b505050505050565b60006060820190508181036000830152611bd48186611768565b90508181036020830152611be88185611768565b9050611bf760408301846114a5565b949350505050565b7f496e646578206f7574206f6620626f756e647300000000000000000000000000600082015250565b6000611c35601383611757565b9150611c4082611bff565b602082019050919050565b60006020820190508181036000830152611c6481611c28565b9050919050565b7f4e487b7100000000000000000000000000000000000000000000000000000000600052603260045260246000fdfea26469706673582212207e474dc1d095b179bdb1c5a6bca667b73770ff9901fba46a1fee0f70090107c464736f6c63430008180033",
  "linkReferences": {},
  "deployedLinkReferences": {}
}